:020000040000FA
:020000008E2848
:0E0002008316851207128712871107118710C7
:1000100007108312071287128512871107118710A4
:1000200007105030692030302B20143069203030D8
:100030002B200130692030302B2028302B200C3031
:100040002B2001302B2085160800851280382B20AC
:1000500085166E2008000716A30087110711871068
:100060000710A31B0714231B8714A31A0715231AB1
:100070008715071207168711071187100710A31994
:10008000071423198714A3180715231887150712B7
:1000900051200800851201302B2002302B208516BC
:1000A00008008316071483128716071607185E28A0
:1000B000831607108312071287120800562885122C
:1000C00080302B20851608008512C0302B20851625
:1000D0000800A2006E20A20B6A280800F330A000DE
:1000E0000230A100A00B7528A10B72287728080008
:1000F0001F30A000A00B7A287D280800831600304E
:100100009B001C141A0803198A2883122B208316BB
:080110001B0A8028831208007D
:04011800003400347B
:04011C0083128501C4
:100120008701990183169101831209309F0083167C
:1001300090009F00043091000430850083128312E8
:1001400001204A205F207E200230AD009F149F18BE
:10015000AD28B62080306920A628A6282608A80049
:100160000310A80C2708A900A90CA628E320AD03BA
:10017000031DAE280230AD000310A60CA70C280802
:10018000A5002908A40035212608A6002708A700F5
:100190003C21CB20080064202A080F39303E2B2058
:1001A0002E302B202B0E0F39303E2B202B080F39F1
:1001B000303E2B202C0E0F39303E2B202C080F39CF
:1001C000303E2B200800A601A7019E1BFC201E1B11
:1001D00002219E1A08211E1A0E219E1914211E1991
:1001E0001A219E1820211E18262183169E1B2B21C2
:1001F0001E1B3021831208006130A500A830A40026
:10020000352108003030A500D430A4003521080085
:100210001830A5006A30A400352108000C30A50074
:100220003530A400352108000630A5001A30A4009E
:10023000352108000330A5000D30A4003521080049
:100240000130A5008630A40035210800A501C33087
:10025000A40035210800A5016130A4003521080063
:10026000A5013030A400352108002408A707031891
:10027000A60A2508A607080003101030AD00AA0141
:10028000AB01AC01A70DA60DAC0DAB0DAA0DAD0BCE
:100290004A2900342C30840054212B30840054210E
:1002A0002A3084005421422903300007AE00AE19E1
:0E02B000800030300007AE00AE1B800000342E
:02400E00EC3F85
:1042000056006F006C0074006100670065002000BC
:024210000000AC
:00000001FF
